{
  "contractName": "ArtistReward",
  "abi": [
    {
      "inputs": [],
      "stateMutability": "payable",
      "type": "constructor",
      "payable": true
    },
    {
      "anonymous": false,
      "inputs": [
        {
          "indexed": false,
          "internalType": "address",
          "name": "to",
          "type": "address"
        },
        {
          "indexed": false,
          "internalType": "string",
          "name": "artistname",
          "type": "string"
        },
        {
          "indexed": false,
          "internalType": "string",
          "name": "speciality",
          "type": "string"
        }
      ],
      "name": "Add_artist",
      "type": "event"
    },
    {
      "anonymous": false,
      "inputs": [
        {
          "indexed": true,
          "internalType": "address",
          "name": "owner",
          "type": "address"
        },
        {
          "indexed": true,
          "internalType": "address",
          "name": "spender",
          "type": "address"
        },
        {
          "indexed": false,
          "internalType": "uint256",
          "name": "value",
          "type": "uint256"
        }
      ],
      "name": "Approval",
      "type": "event"
    },
    {
      "anonymous": false,
      "inputs": [
        {
          "indexed": false,
          "internalType": "address",
          "name": "from",
          "type": "address"
        },
        {
          "indexed": false,
          "internalType": "address",
          "name": "to",
          "type": "address"
        },
        {
          "indexed": false,
          "internalType": "uint256",
          "name": "amount",
          "type": "uint256"
        },
        {
          "indexed": false,
          "internalType": "string",
          "name": "message",
          "type": "string"
        },
        {
          "indexed": false,
          "internalType": "string",
          "name": "fanname",
          "type": "string"
        },
        {
          "indexed": false,
          "internalType": "string",
          "name": "artistname",
          "type": "string"
        }
      ],
      "name": "Sent",
      "type": "event"
    },
    {
      "anonymous": false,
      "inputs": [
        {
          "indexed": true,
          "internalType": "address",
          "name": "from",
          "type": "address"
        },
        {
          "indexed": true,
          "internalType": "address",
          "name": "to",
          "type": "address"
        },
        {
          "indexed": false,
          "internalType": "uint256",
          "name": "value",
          "type": "uint256"
        }
      ],
      "name": "Transfer",
      "type": "event"
    },
    {
      "inputs": [
        {
          "internalType": "uint256",
          "name": "",
          "type": "uint256"
        }
      ],
      "name": "Artistslist",
      "outputs": [
        {
          "components": [
            {
              "internalType": "uint256",
              "name": "_value",
              "type": "uint256"
            }
          ],
          "internalType": "struct Counters.Counter",
          "name": "id",
          "type": "tuple"
        },
        {
          "internalType": "address",
          "name": "artist_addr",
          "type": "address"
        },
        {
          "internalType": "string",
          "name": "artistname",
          "type": "string"
        },
        {
          "internalType": "string",
          "name": "speciality",
          "type": "string"
        }
      ],
      "stateMutability": "view",
      "type": "function",
      "constant": true
    },
    {
      "inputs": [
        {
          "internalType": "uint256",
          "name": "",
          "type": "uint256"
        }
      ],
      "name": "Eventslist",
      "outputs": [
        {
          "components": [
            {
              "internalType": "uint256",
              "name": "_value",
              "type": "uint256"
            }
          ],
          "internalType": "struct Counters.Counter",
          "name": "id",
          "type": "tuple"
        },
        {
          "internalType": "string",
          "name": "fanname",
          "type": "string"
        },
        {
          "internalType": "string",
          "name": "artistname",
          "type": "string"
        },
        {
          "internalType": "address",
          "name": "fan_addr",
          "type": "address"
        },
        {
          "internalType": "address",
          "name": "artist_add",
          "type": "address"
        },
        {
          "internalType": "string",
          "name": "message",
          "type": "string"
        },
        {
          "internalType": "uint256",
          "name": "timestamp",
          "type": "uint256"
        },
        {
          "internalType": "uint256",
          "name": "amount",
          "type": "uint256"
        }
      ],
      "stateMutability": "view",
      "type": "function",
      "constant": true
    },
    {
      "inputs": [
        {
          "internalType": "address",
          "name": "owner",
          "type": "address"
        },
        {
          "internalType": "address",
          "name": "spender",
          "type": "address"
        }
      ],
      "name": "allowance",
      "outputs": [
        {
          "internalType": "uint256",
          "name": "",
          "type": "uint256"
        }
      ],
      "stateMutability": "view",
      "type": "function",
      "constant": true
    },
    {
      "inputs": [
        {
          "internalType": "address",
          "name": "spender",
          "type": "address"
        },
        {
          "internalType": "uint256",
          "name": "amount",
          "type": "uint256"
        }
      ],
      "name": "approve",
      "outputs": [
        {
          "internalType": "bool",
          "name": "",
          "type": "bool"
        }
      ],
      "stateMutability": "nonpayable",
      "type": "function"
    },
    {
      "inputs": [],
      "name": "artist_id",
      "outputs": [
        {
          "internalType": "uint256",
          "name": "_value",
          "type": "uint256"
        }
      ],
      "stateMutability": "view",
      "type": "function",
      "constant": true
    },
    {
      "inputs": [
        {
          "internalType": "address",
          "name": "account",
          "type": "address"
        }
      ],
      "name": "balanceOf",
      "outputs": [
        {
          "internalType": "uint256",
          "name": "",
          "type": "uint256"
        }
      ],
      "stateMutability": "view",
      "type": "function",
      "constant": true
    },
    {
      "inputs": [
        {
          "internalType": "address",
          "name": "",
          "type": "address"
        }
      ],
      "name": "balances",
      "outputs": [
        {
          "internalType": "uint256",
          "name": "",
          "type": "uint256"
        }
      ],
      "stateMutability": "view",
      "type": "function",
      "constant": true
    },
    {
      "inputs": [],
      "name": "decimals",
      "outputs": [
        {
          "internalType": "uint8",
          "name": "",
          "type": "uint8"
        }
      ],
      "stateMutability": "view",
      "type": "function",
      "constant": true
    },
    {
      "inputs": [
        {
          "internalType": "address",
          "name": "spender",
          "type": "address"
        },
        {
          "internalType": "uint256",
          "name": "subtractedValue",
          "type": "uint256"
        }
      ],
      "name": "decreaseAllowance",
      "outputs": [
        {
          "internalType": "bool",
          "name": "",
          "type": "bool"
        }
      ],
      "stateMutability": "nonpayable",
      "type": "function"
    },
    {
      "inputs": [
        {
          "internalType": "address",
          "name": "spender",
          "type": "address"
        },
        {
          "internalType": "uint256",
          "name": "addedValue",
          "type": "uint256"
        }
      ],
      "name": "increaseAllowance",
      "outputs": [
        {
          "internalType": "bool",
          "name": "",
          "type": "bool"
        }
      ],
      "stateMutability": "nonpayable",
      "type": "function"
    },
    {
      "inputs": [],
      "name": "name",
      "outputs": [
        {
          "internalType": "string",
          "name": "",
          "type": "string"
        }
      ],
      "stateMutability": "view",
      "type": "function",
      "constant": true
    },
    {
      "inputs": [],
      "name": "owner",
      "outputs": [
        {
          "internalType": "address payable",
          "name": "",
          "type": "address"
        }
      ],
      "stateMutability": "view",
      "type": "function",
      "constant": true
    },
    {
      "inputs": [],
      "name": "symbol",
      "outputs": [
        {
          "internalType": "string",
          "name": "",
          "type": "string"
        }
      ],
      "stateMutability": "view",
      "type": "function",
      "constant": true
    },
    {
      "inputs": [],
      "name": "totalSupply",
      "outputs": [
        {
          "internalType": "uint256",
          "name": "",
          "type": "uint256"
        }
      ],
      "stateMutability": "view",
      "type": "function",
      "constant": true
    },
    {
      "inputs": [
        {
          "internalType": "address",
          "name": "recipient",
          "type": "address"
        },
        {
          "internalType": "uint256",
          "name": "amount",
          "type": "uint256"
        }
      ],
      "name": "transfer",
      "outputs": [
        {
          "internalType": "bool",
          "name": "",
          "type": "bool"
        }
      ],
      "stateMutability": "nonpayable",
      "type": "function"
    },
    {
      "inputs": [
        {
          "internalType": "address",
          "name": "sender",
          "type": "address"
        },
        {
          "internalType": "address",
          "name": "recipient",
          "type": "address"
        },
        {
          "internalType": "uint256",
          "name": "amount",
          "type": "uint256"
        }
      ],
      "name": "transferFrom",
      "outputs": [
        {
          "internalType": "bool",
          "name": "",
          "type": "bool"
        }
      ],
      "stateMutability": "nonpayable",
      "type": "function"
    },
    {
      "inputs": [],
      "name": "balanceof",
      "outputs": [
        {
          "internalType": "uint256",
          "name": "",
          "type": "uint256"
        }
      ],
      "stateMutability": "view",
      "type": "function",
      "constant": true
    },
    {
      "inputs": [],
      "name": "balanceofOwner",
      "outputs": [
        {
          "internalType": "uint256",
          "name": "",
          "type": "uint256"
        }
      ],
      "stateMutability": "view",
      "type": "function",
      "constant": true
    },
    {
      "inputs": [
        {
          "internalType": "address payable",
          "name": "receiver",
          "type": "address"
        },
        {
          "internalType": "string",
          "name": "fanname",
          "type": "string"
        },
        {
          "internalType": "string",
          "name": "artistname",
          "type": "string"
        },
        {
          "internalType": "uint256",
          "name": "amount",
          "type": "uint256"
        },
        {
          "internalType": "string",
          "name": "message",
          "type": "string"
        }
      ],
      "name": "Send",
      "outputs": [],
      "stateMutability": "payable",
      "type": "function",
      "payable": true
    },
    {
      "inputs": [
        {
          "internalType": "address",
          "name": "artistaddr",
          "type": "address"
        },
        {
          "internalType": "string",
          "name": "artistname",
          "type": "string"
        },
        {
          "internalType": "string",
          "name": "speciality",
          "type": "string"
        }
      ],
      "name": "createArtist",
      "outputs": [],
      "stateMutability": "nonpayable",
      "type": "function"
    },
    {
      "inputs": [],
      "name": "getEvents",
      "outputs": [
        {
          "components": [
            {
              "components": [
                {
                  "internalType": "uint256",
                  "name": "_value",
                  "type": "uint256"
                }
              ],
              "internalType": "struct Counters.Counter",
              "name": "id",
              "type": "tuple"
            },
            {
              "internalType": "string",
              "name": "fanname",
              "type": "string"
            },
            {
              "internalType": "string",
              "name": "artistname",
              "type": "string"
            },
            {
              "internalType": "address",
              "name": "fan_addr",
              "type": "address"
            },
            {
              "internalType": "address",
              "name": "artist_add",
              "type": "address"
            },
            {
              "internalType": "string",
              "name": "message",
              "type": "string"
            },
            {
              "internalType": "uint256",
              "name": "timestamp",
              "type": "uint256"
            },
            {
              "internalType": "uint256",
              "name": "amount",
              "type": "uint256"
            }
          ],
          "internalType": "struct ArtistReward.Events[]",
          "name": "",
          "type": "tuple[]"
        }
      ],
      "stateMutability": "view",
      "type": "function",
      "constant": true
    },
    {
      "inputs": [],
      "name": "getArtists",
      "outputs": [
        {
          "components": [
            {
              "components": [
                {
                  "internalType": "uint256",
                  "name": "_value",
                  "type": "uint256"
                }
              ],
              "internalType": "struct Counters.Counter",
              "name": "id",
              "type": "tuple"
            },
            {
              "internalType": "address",
              "name": "artist_addr",
              "type": "address"
            },
            {
              "internalType": "string",
              "name": "artistname",
              "type": "string"
            },
            {
              "internalType": "string",
              "name": "speciality",
              "type": "string"
            }
          ],
          "internalType": "struct ArtistReward.Artists[]",
          "name": "",
          "type": "tuple[]"
        }
      ],
      "stateMutability": "view",
      "type": "function",
      "constant": true
    }
  ],
  "bytecode": "0x60806040526040518060400160405280600d81526020017f41727469737452657761726473000000000000000000000000000000000000008152506040518060400160405280600281526020017f4152000000000000000000000000000000000000000000000000000000000000815250816003908051906020019062000088929190620000eb565b508060049080519060200190620000a1929190620000eb565b50505033601660006101000a81548173ffffffffffffffffffffffffffffffffffffffff021916908373ffffffffffffffffffffffffffffffffffffffff16021790555062000200565b828054620000f990620001ca565b90600052602060002090601f0160209004810192826200011d576000855562000169565b82601f106200013857805160ff191683800117855562000169565b8280016001018555821562000169579182015b82811115620001685782518255916020019190600101906200014b565b5b5090506200017891906200017c565b5090565b5b80821115620001975760008160009055506001016200017d565b5090565b7f4e487b7100000000000000000000000000000000000000000000000000000000600052602260045260246000fd5b60006002820490506001821680620001e357607f821691505b60208210811415620001fa57620001f96200019b565b5b50919050565b61300180620002106000396000f3fe6080604052600436106101355760003560e01c806370a08231116100ab578063bcc9d5601161006f578063bcc9d56014610459578063c722edd714610499578063cfa276c8146104dd578063d4cd0d4514610508578063dd62ed3e14610533578063f29032b01461057057610135565b806370a082311461034c5780638da5cb5b1461038957806395d89b41146103b4578063a457c2d7146103df578063a9059cbb1461041c57610135565b80632980a5d3116100fd5780632980a5d314610247578063313ce56714610272578063395093511461029d5780633f925f45146102da578063404aa8f9146102f6578063527378031461032157610135565b806306fdde031461013a578063095ea7b31461016557806318160ddd146101a257806323b872dd146101cd57806327e235e31461020a575b600080fd5b34801561014657600080fd5b5061014f610599565b60405161015c9190611fc3565b60405180910390f35b34801561017157600080fd5b5061018c6004803603810190610187919061208d565b61062b565b60405161019991906120e8565b60405180910390f35b3480156101ae57600080fd5b506101b7610649565b6040516101c49190612112565b60405180910390f35b3480156101d957600080fd5b506101f460048036038101906101ef919061212d565b610653565b60405161020191906120e8565b60405180910390f35b34801561021657600080fd5b50610231600480360381019061022c9190612180565b61074b565b60405161023e9190612112565b60405180910390f35b34801561025357600080fd5b5061025c610763565b6040516102699190612112565b60405180910390f35b34801561027e57600080fd5b5061028761076b565b60405161029491906121c9565b60405180910390f35b3480156102a957600080fd5b506102c460048036038101906102bf919061208d565b610774565b6040516102d191906120e8565b60405180910390f35b6102f460048036038101906102ef9190612357565b610820565b005b34801561030257600080fd5b5061030b610bda565b604051610318919061262a565b60405180910390f35b34801561032d57600080fd5b50610336610ece565b6040516103439190612112565b60405180910390f35b34801561035857600080fd5b50610373600480360381019061036e9190612180565b610eda565b6040516103809190612112565b60405180910390f35b34801561039557600080fd5b5061039e610f22565b6040516103ab919061265b565b60405180910390f35b3480156103c057600080fd5b506103c9610f48565b6040516103d69190611fc3565b60405180910390f35b3480156103eb57600080fd5b506104066004803603810190610401919061208d565b610fda565b60405161041391906120e8565b60405180910390f35b34801561042857600080fd5b50610443600480360381019061043e919061208d565b6110c5565b60405161045091906120e8565b60405180910390f35b34801561046557600080fd5b50610480600480360381019061047b9190612676565b6110e3565b60405161049094939291906126ce565b60405180910390f35b3480156104a557600080fd5b506104c060048036038101906104bb9190612676565b611267565b6040516104d4989796959493929190612721565b60405180910390f35b3480156104e957600080fd5b506104f26114ab565b6040516104ff9190612112565b60405180910390f35b34801561051457600080fd5b5061051d6114ec565b60405161052a91906128e0565b60405180910390f35b34801561053f57600080fd5b5061055a60048036038101906105559190612902565b6116e3565b6040516105679190612112565b60405180910390f35b34801561057c57600080fd5b5061059760048036038101906105929190612942565b61176a565b005b6060600380546105a8906129fc565b80601f01602080910402602001604051908101604052809291908181526020018280546105d4906129fc565b80156106215780601f106105f657610100808354040283529160200191610621565b820191906000526020600020905b81548152906001019060200180831161060457829003601f168201915b5050505050905090565b600061063f610638611986565b848461198e565b6001905092915050565b6000600254905090565b6000610660848484611b59565b6000600160008673ffffffffffffffffffffffffffffffffffffffff1673ffffffffffffffffffffffffffffffffffffffff16815260200190815260200160002060006106ab611986565b73ffffffffffffffffffffffffffffffffffffffff1673ffffffffffffffffffffffffffffffffffffffff1681526020019081526020016000205490508281101561072b576040517f08c379a000000000000000000000000000000000000000000000000000000000815260040161072290612aa0565b60405180910390fd5b61073f85610737611986565b85840361198e565b60019150509392505050565b60076020528060005260406000206000915090505481565b600047905090565b60006012905090565b6000610816610781611986565b84846001600061078f611986565b73ffffffffffffffffffffffffffffffffffffffff1673ffffffffffffffffffffffffffffffffffffffff16815260200190815260200160002060008873ffffffffffffffffffffffffffffffffffffffff1673ffffffffffffffffffffffffffffffffffffffff168152602001908152602001600020546108119190612aef565b61198e565b6001905092915050565b6000821161082d57600080fd5b8473ffffffffffffffffffffffffffffffffffffffff166108fc839081150290604051600060405180830381858888f19350505050158015610873573d6000803e3d6000fd5b50604051806101000160405280600560405180602001604052908160008201548152505081526020018581526020018481526020013373ffffffffffffffffffffffffffffffffffffffff1681526020018673ffffffffffffffffffffffffffffffffffffffff1681526020018281526020014281526020013481525060086000820151816000016000820151816000015550506020820151816001019080519060200190610923929190611dfa565b506040820151816002019080519060200190610940929190611dfa565b5060608201518160030160006101000a81548173ffffffffffffffffffffffffffffffffffffffff021916908373ffffffffffffffffffffffffffffffffffffffff16021790555060808201518160040160006101000a81548173ffffffffffffffffffffffffffffffffffffffff021916908373ffffffffffffffffffffffffffffffffffffffff16021790555060a08201518160050190805190602001906109eb929190611dfa565b5060c0820151816006015560e0820151816007015590505060106008908060018154018082558091505060019003906000526020600020906008020160009091909190915060008201816000016000820154816000015550506001820181600101908054610a58906129fc565b610a63929190611e80565b506002820181600201908054610a78906129fc565b610a83929190611e80565b506003820160009054906101000a900473ffffffffffffffffffffffffffffffffffffffff168160030160006101000a81548173ffffffffffffffffffffffffffffffffffffffff021916908373ffffffffffffffffffffffffffffffffffffffff1602179055506004820160009054906101000a900473ffffffffffffffffffffffffffffffffffffffff168160040160006101000a81548173ffffffffffffffffffffffffffffffffffffffff021916908373ffffffffffffffffffffffffffffffffffffffff1602179055506005820181600501908054610b66906129fc565b610b71929190611e80565b5060068201548160060155600782015481600701555050610b926005611dda565b7f08d902c3e317b36337109a17b51168f1b87e6309642a23a9cc2cbebf8ea371d7338684848888604051610bcb96959493929190612ba4565b60405180910390a15050505050565b60606010805480602002602001604051908101604052809291908181526020016000905b82821015610ec5578382906000526020600020906008020160405180610100016040529081600082016040518060200160405290816000820154815250508152602001600182018054610c50906129fc565b80601f0160208091040260200160405190810160405280929190818152602001828054610c7c906129fc565b8015610cc95780601f10610c9e57610100808354040283529160200191610cc9565b820191906000526020600020905b815481529060010190602001808311610cac57829003601f168201915b50505050508152602001600282018054610ce2906129fc565b80601f0160208091040260200160405190810160405280929190818152602001828054610d0e906129fc565b8015610d5b5780601f10610d3057610100808354040283529160200191610d5b565b820191906000526020600020905b815481529060010190602001808311610d3e57829003601f168201915b505050505081526020016003820160009054906101000a900473ffffffffffffffffffffffffffffffffffffffff1673ffffffffffffffffffffffffffffffffffffffff1673ffffffffffffffffffffffffffffffffffffffff1681526020016004820160009054906101000a900473ffffffffffffffffffffffffffffffffffffffff1673ffffffffffffffffffffffffffffffffffffffff1673ffffffffffffffffffffffffffffffffffffffff168152602001600582018054610e20906129fc565b80601f0160208091040260200160405190810160405280929190818152602001828054610e4c906129fc565b8015610e995780601f10610e6e57610100808354040283529160200191610e99565b820191906000526020600020905b815481529060010190602001808311610e7c57829003601f168201915b505050505081526020016006820154815260200160078201548152505081526020019060010190610bfe565b50505050905090565b60068060000154905081565b60008060008373ffffffffffffffffffffffffffffffffffffffff1673ffffffffffffffffffffffffffffffffffffffff168152602001908152602001600020549050919050565b601660009054906101000a900473ffffffffffffffffffffffffffffffffffffffff1681565b606060048054610f57906129fc565b80601f0160208091040260200160405190810160405280929190818152602001828054610f83906129fc565b8015610fd05780601f10610fa557610100808354040283529160200191610fd0565b820191906000526020600020905b815481529060010190602001808311610fb357829003601f168201915b5050505050905090565b60008060016000610fe9611986565b73ffffffffffffffffffffffffffffffffffffffff1673ffffffffffffffffffffffffffffffffffffffff16815260200190815260200160002060008573ffffffffffffffffffffffffffffffffffffffff1673ffffffffffffffffffffffffffffffffffffffff168152602001908152602001600020549050828110156110a6576040517f08c379a000000000000000000000000000000000000000000000000000000000815260040161109d90612c8c565b60405180910390fd5b6110ba6110b1611986565b8585840361198e565b600191505092915050565b60006110d96110d2611986565b8484611b59565b6001905092915050565b601581815481106110f357600080fd5b906000526020600020906004020160009150905080600001604051806020016040529081600082015481525050908060010160009054906101000a900473ffffffffffffffffffffffffffffffffffffffff1690806002018054611156906129fc565b80601f0160208091040260200160405190810160405280929190818152602001828054611182906129fc565b80156111cf5780601f106111a4576101008083540402835291602001916111cf565b820191906000526020600020905b8154815290600101906020018083116111b257829003601f168201915b5050505050908060030180546111e4906129fc565b80601f0160208091040260200160405190810160405280929190818152602001828054611210906129fc565b801561125d5780601f106112325761010080835404028352916020019161125d565b820191906000526020600020905b81548152906001019060200180831161124057829003601f168201915b5050505050905084565b6010818154811061127757600080fd5b906000526020600020906008020160009150905080600001604051806020016040529081600082015481525050908060010180546112b4906129fc565b80601f01602080910402602001604051908101604052809291908181526020018280546112e0906129fc565b801561132d5780601f106113025761010080835404028352916020019161132d565b820191906000526020600020905b81548152906001019060200180831161131057829003601f168201915b505050505090806002018054611342906129fc565b80601f016020809104026020016040519081016040528092919081815260200182805461136e906129fc565b80156113bb5780601f10611390576101008083540402835291602001916113bb565b820191906000526020600020905b81548152906001019060200180831161139e57829003601f168201915b5050505050908060030160009054906101000a900473ffffffffffffffffffffffffffffffffffffffff16908060040160009054906101000a900473ffffffffffffffffffffffffffffffffffffffff169080600501805461141c906129fc565b80601f0160208091040260200160405190810160405280929190818152602001828054611448906129fc565b80156114955780601f1061146a57610100808354040283529160200191611495565b820191906000526020600020905b81548152906001019060200180831161147857829003601f168201915b5050505050908060060154908060070154905088565b6000601660009054906101000a900473ffffffffffffffffffffffffffffffffffffffff1673ffffffffffffffffffffffffffffffffffffffff1631905090565b60606015805480602002602001604051908101604052809291908181526020016000905b828210156116da57838290600052602060002090600402016040518060800160405290816000820160405180602001604052908160008201548152505081526020016001820160009054906101000a900473ffffffffffffffffffffffffffffffffffffffff1673ffffffffffffffffffffffffffffffffffffffff1673ffffffffffffffffffffffffffffffffffffffff1681526020016002820180546115b7906129fc565b80601f01602080910402602001604051908101604052809291908181526020018280546115e3906129fc565b80156116305780601f1061160557610100808354040283529160200191611630565b820191906000526020600020905b81548152906001019060200180831161161357829003601f168201915b50505050508152602001600382018054611649906129fc565b80601f0160208091040260200160405190810160405280929190818152602001828054611675906129fc565b80156116c25780601f10611697576101008083540402835291602001916116c2565b820191906000526020600020905b8154815290600101906020018083116116a557829003601f168201915b50505050508152505081526020019060010190611510565b50505050905090565b6000600160008473ffffffffffffffffffffffffffffffffffffffff1673ffffffffffffffffffffffffffffffffffffffff16815260200190815260200160002060008373ffffffffffffffffffffffffffffffffffffffff1673ffffffffffffffffffffffffffffffffffffffff16815260200190815260200160002054905092915050565b6040518060800160405280600660405180602001604052908160008201548152505081526020018473ffffffffffffffffffffffffffffffffffffffff16815260200183815260200182815250601160008201518160000160008201518160000155505060208201518160010160006101000a81548173ffffffffffffffffffffffffffffffffffffffff021916908373ffffffffffffffffffffffffffffffffffffffff1602179055506040820151816002019080519060200190611831929190611dfa565b50606082015181600301908051906020019061184e929190611dfa565b5090505060156011908060018154018082558091505060019003906000526020600020906004020160009091909190915060008201816000016000820154816000015550506001820160009054906101000a900473ffffffffffffffffffffffffffffffffffffffff168160010160006101000a81548173ffffffffffffffffffffffffffffffffffffffff021916908373ffffffffffffffffffffffffffffffffffffffff160217905550600282018160020190805461190e906129fc565b611919929190611e80565b50600382018160030190805461192e906129fc565b611939929190611e80565b5050506119466006611dda565b7f22f08a26e88974577faf8dc68bccce6ad84cd57fc86bea1f7503dfe17a3a83ed83838360405161197993929190612cac565b60405180910390a1505050565b600033905090565b600073ffffffffffffffffffffffffffffffffffffffff168373ffffffffffffffffffffffffffffffffffffffff1614156119fe576040517f08c379a00000000000000000000000000000000000000000000000000000000081526004016119f590612d63565b60405180910390fd5b600073ffffffffffffffffffffffffffffffffffffffff168273ffffffffffffffffffffffffffffffffffffffff161415611a6e576040517f08c379a0000000000000000000000000000000000000000000000000000000008152600401611a6590612df5565b60405180910390fd5b80600160008573ffffffffffffffffffffffffffffffffffffffff1673ffffffffffffffffffffffffffffffffffffffff16815260200190815260200160002060008473ffffffffffffffffffffffffffffffffffffffff1673ffffffffffffffffffffffffffffffffffffffff168152602001908152602001600020819055508173ffffffffffffffffffffffffffffffffffffffff168373ffffffffffffffffffffffffffffffffffffffff167f8c5be1e5ebec7d5bd14f71427d1e84f3dd0314c0f7b2291e5b200ac8c7c3b92583604051611b4c9190612112565b60405180910390a3505050565b600073ffffffffffffffffffffffffffffffffffffffff168373ffffffffffffffffffffffffffffffffffffffff161415611bc9576040517f08c379a0000000000000000000000000000000000000000000000000000000008152600401611bc090612e87565b60405180910390fd5b600073ffffffffffffffffffffffffffffffffffffffff168273ffffffffffffffffffffffffffffffffffffffff161415611c39576040517f08c379a0000000000000000000000000000000000000000000000000000000008152600401611c3090612f19565b60405180910390fd5b611c44838383611df0565b60008060008573ffffffffffffffffffffffffffffffffffffffff1673ffffffffffffffffffffffffffffffffffffffff16815260200190815260200160002054905081811015611cca576040517f08c379a0000000000000000000000000000000000000000000000000000000008152600401611cc190612fab565b60405180910390fd5b8181036000808673ffffffffffffffffffffffffffffffffffffffff1673ffffffffffffffffffffffffffffffffffffffff16815260200190815260200160002081905550816000808573ffffffffffffffffffffffffffffffffffffffff1673ffffffffffffffffffffffffffffffffffffffff1681526020019081526020016000206000828254611d5d9190612aef565b925050819055508273ffffffffffffffffffffffffffffffffffffffff168473ffffffffffffffffffffffffffffffffffffffff167fddf252ad1be2c89b69c2b068fc378daa952ba7f163c4a11628f55a4df523b3ef84604051611dc19190612112565b60405180910390a3611dd4848484611df5565b50505050565b6001816000016000828254019250508190555050565b505050565b505050565b828054611e06906129fc565b90600052602060002090601f016020900481019282611e285760008555611e6f565b82601f10611e4157805160ff1916838001178555611e6f565b82800160010185558215611e6f579182015b82811115611e6e578251825591602001919060010190611e53565b5b509050611e7c9190611f0d565b5090565b828054611e8c906129fc565b90600052602060002090601f016020900481019282611eae5760008555611efc565b82601f10611ebf5780548555611efc565b82800160010185558215611efc57600052602060002091601f016020900482015b82811115611efb578254825591600101919060010190611ee0565b5b509050611f099190611f0d565b5090565b5b80821115611f26576000816000905550600101611f0e565b5090565b600081519050919050565b600082825260208201905092915050565b60005b83811015611f64578082015181840152602081019050611f49565b83811115611f73576000848401525b50505050565b6000601f19601f8301169050919050565b6000611f9582611f2a565b611f9f8185611f35565b9350611faf818560208601611f46565b611fb881611f79565b840191505092915050565b60006020820190508181036000830152611fdd8184611f8a565b905092915050565b6000604051905090565b600080fd5b600080fd5b600073ffffffffffffffffffffffffffffffffffffffff82169050919050565b600061202482611ff9565b9050919050565b61203481612019565b811461203f57600080fd5b50565b6000813590506120518161202b565b92915050565b6000819050919050565b61206a81612057565b811461207557600080fd5b50565b60008135905061208781612061565b92915050565b600080604083850312156120a4576120a3611fef565b5b60006120b285828601612042565b92505060206120c385828601612078565b9150509250929050565b60008115159050919050565b6120e2816120cd565b82525050565b60006020820190506120fd60008301846120d9565b92915050565b61210c81612057565b82525050565b60006020820190506121276000830184612103565b92915050565b60008060006060848603121561214657612145611fef565b5b600061215486828701612042565b935050602061216586828701612042565b925050604061217686828701612078565b9150509250925092565b60006020828403121561219657612195611fef565b5b60006121a484828501612042565b91505092915050565b600060ff82169050919050565b6121c3816121ad565b82525050565b60006020820190506121de60008301846121ba565b92915050565b60006121ef82611ff9565b9050919050565b6121ff816121e4565b811461220a57600080fd5b50565b60008135905061221c816121f6565b92915050565b600080fd5b600080fd5b7f4e487b7100000000000000000000000000000000000000000000000000000000600052604160045260246000fd5b61226482611f79565b810181811067ffffffffffffffff821117156122835761228261222c565b5b80604052505050565b6000612296611fe5565b90506122a2828261225b565b919050565b600067ffffffffffffffff8211156122c2576122c161222c565b5b6122cb82611f79565b9050602081019050919050565b82818337600083830152505050565b60006122fa6122f5846122a7565b61228c565b90508281526020810184848401111561231657612315612227565b5b6123218482856122d8565b509392505050565b600082601f83011261233e5761233d612222565b5b813561234e8482602086016122e7565b91505092915050565b600080600080600060a0868803121561237357612372611fef565b5b60006123818882890161220d565b955050602086013567ffffffffffffffff8111156123a2576123a1611ff4565b5b6123ae88828901612329565b945050604086013567ffffffffffffffff8111156123cf576123ce611ff4565b5b6123db88828901612329565b93505060606123ec88828901612078565b925050608086013567ffffffffffffffff81111561240d5761240c611ff4565b5b61241988828901612329565b9150509295509295909350565b600081519050919050565b600082825260208201905092915050565b6000819050602082019050919050565b61245b81612057565b82525050565b6020820160008201516124776000850182612452565b50505050565b600082825260208201905092915050565b600061249982611f2a565b6124a3818561247d565b93506124b3818560208601611f46565b6124bc81611f79565b840191505092915050565b6124d081612019565b82525050565b6000610100830160008301516124ef6000860182612461565b5060208301518482036020860152612507828261248e565b91505060408301518482036040860152612521828261248e565b915050606083015161253660608601826124c7565b50608083015161254960808601826124c7565b5060a083015184820360a0860152612561828261248e565b91505060c083015161257660c0860182612452565b5060e083015161258960e0860182612452565b508091505092915050565b60006125a083836124d6565b905092915050565b6000602082019050919050565b60006125c082612426565b6125ca8185612431565b9350836020820285016125dc85612442565b8060005b8581101561261857848403895281516125f98582612594565b9450612604836125a8565b925060208a019950506001810190506125e0565b50829750879550505050505092915050565b6000602082019050818103600083015261264481846125b5565b905092915050565b612655816121e4565b82525050565b6000602082019050612670600083018461264c565b92915050565b60006020828403121561268c5761268b611fef565b5b600061269a84828501612078565b91505092915050565b6020820160008201516126b96000850182612452565b50505050565b6126c881612019565b82525050565b60006080820190506126e360008301876126a3565b6126f060208301866126bf565b81810360408301526127028185611f8a565b905081810360608301526127168184611f8a565b905095945050505050565b600061010082019050612737600083018b6126a3565b8181036020830152612749818a611f8a565b9050818103604083015261275d8189611f8a565b905061276c60608301886126bf565b61277960808301876126bf565b81810360a083015261278b8186611f8a565b905061279a60c0830185612103565b6127a760e0830184612103565b9998505050505050505050565b600081519050919050565b600082825260208201905092915050565b6000819050602082019050919050565b60006080830160008301516127f86000860182612461565b50602083015161280b60208601826124c7565b5060408301518482036040860152612823828261248e565b9150506060830151848203606086015261283d828261248e565b9150508091505092915050565b600061285683836127e0565b905092915050565b6000602082019050919050565b6000612876826127b4565b61288081856127bf565b935083602082028501612892856127d0565b8060005b858110156128ce57848403895281516128af858261284a565b94506128ba8361285e565b925060208a01995050600181019050612896565b50829750879550505050505092915050565b600060208201905081810360008301526128fa818461286b565b905092915050565b6000806040838503121561291957612918611fef565b5b600061292785828601612042565b925050602061293885828601612042565b9150509250929050565b60008060006060848603121561295b5761295a611fef565b5b600061296986828701612042565b935050602084013567ffffffffffffffff81111561298a57612989611ff4565b5b61299686828701612329565b925050604084013567ffffffffffffffff8111156129b7576129b6611ff4565b5b6129c386828701612329565b9150509250925092565b7f4e487b7100000000000000000000000000000000000000000000000000000000600052602260045260246000fd5b60006002820490506001821680612a1457607f821691505b60208210811415612a2857612a276129cd565b5b50919050565b7f45524332303a207472616e7366657220616d6f756e742065786365656473206160008201527f6c6c6f77616e6365000000000000000000000000000000000000000000000000602082015250565b6000612a8a602883611f35565b9150612a9582612a2e565b604082019050919050565b60006020820190508181036000830152612ab981612a7d565b9050919050565b7f4e487b7100000000000000000000000000000000000000000000000000000000600052601160045260246000fd5b6000612afa82612057565b9150612b0583612057565b9250827fffffffffffffffffffffffffffffffffffffffffffffffffffffffffffffffff03821115612b3a57612b39612ac0565b5b828201905092915050565b6000819050919050565b6000612b6a612b65612b6084611ff9565b612b45565b611ff9565b9050919050565b6000612b7c82612b4f565b9050919050565b6000612b8e82612b71565b9050919050565b612b9e81612b83565b82525050565b600060c082019050612bb960008301896126bf565b612bc66020830188612b95565b612bd36040830187612103565b8181036060830152612be58186611f8a565b90508181036080830152612bf98185611f8a565b905081810360a0830152612c0d8184611f8a565b9050979650505050505050565b7f45524332303a2064656372656173656420616c6c6f77616e63652062656c6f7760008201527f207a65726f000000000000000000000000000000000000000000000000000000602082015250565b6000612c76602583611f35565b9150612c8182612c1a565b604082019050919050565b60006020820190508181036000830152612ca581612c69565b9050919050565b6000606082019050612cc160008301866126bf565b8181036020830152612cd38185611f8a565b90508181036040830152612ce78184611f8a565b9050949350505050565b7f45524332303a20617070726f76652066726f6d20746865207a65726f2061646460008201527f7265737300000000000000000000000000000000000000000000000000000000602082015250565b6000612d4d602483611f35565b9150612d5882612cf1565b604082019050919050565b60006020820190508181036000830152612d7c81612d40565b9050919050565b7f45524332303a20617070726f766520746f20746865207a65726f20616464726560008201527f7373000000000000000000000000000000000000000000000000000000000000602082015250565b6000612ddf602283611f35565b9150612dea82612d83565b604082019050919050565b60006020820190508181036000830152612e0e81612dd2565b9050919050565b7f45524332303a207472616e736665722066726f6d20746865207a65726f20616460008201527f6472657373000000000000000000000000000000000000000000000000000000602082015250565b6000612e71602583611f35565b9150612e7c82612e15565b604082019050919050565b60006020820190508181036000830152612ea081612e64565b9050919050565b7f45524332303a207472616e7366657220746f20746865207a65726f206164647260008201527f6573730000000000000000000000000000000000000000000000000000000000602082015250565b6000612f03602383611f35565b9150612f0e82612ea7565b604082019050919050565b60006020820190508181036000830152612f3281612ef6565b9050919050565b7f45524332303a207472616e7366657220616d6f756e742065786365656473206260008201527f616c616e63650000000000000000000000000000000000000000000000000000602082015250565b6000612f95602683611f35565b9150612fa082612f39565b604082019050919050565b60006020820190508181036000830152612fc481612f88565b905091905056fea26469706673582212204990e00566ca0f07f11773ea42f4cd59bf672fa31a421bf97db4d49113aa553064736f6c63430008090033",
  "immutableReferences": {},
  "source": "// SPDX-License-Identifier: GPL-3.0\r\npragma solidity ^0.8.9;\r\nimport \"@openzeppelin/contracts/utils/Counters.sol\";\r\nimport \"@openzeppelin/contracts/token/ERC20/ERC20.sol\";\r\ncontract ArtistReward is ERC20 {\r\n     using Counters for Counters.Counter;\r\n    Counters.Counter private _Ids;\r\n    Counters.Counter public artist_id;\r\n\r\n    mapping(address => uint) public  balances;\r\n    //mapping(address =>  Fans) public  fans_addr;\r\n    // address payable[] public fansList;\r\n    event Sent(address from ,address to , uint amount,string message,string fanname,string artistname);\r\n    event Add_artist(address to,string artistname,string speciality);\r\n    \r\n\r\n    struct Events {\r\n\r\n        Counters.Counter id;\r\n        string fanname;\r\n        //uint256 fanId;\r\n        string artistname;\r\n        //uint artistId;\r\n        address fan_addr;\r\n        address artist_add;\r\n        string message;\r\n        uint256 timestamp;\r\n        uint256 amount;\r\n    }\r\n\r\n    struct Artists {\r\n        Counters.Counter id;\r\n        address artist_addr;\r\n        string artistname;\r\n        \r\n        string speciality;\r\n        //uint256 profile_pic;\r\n    }\r\n\r\n    Events EventsInfo; \r\n    Events[] public Eventslist;\r\n    Artists ArtistsInfo;\r\n    Artists[] public Artistslist;\r\n\r\n    //Fans payable[] public fans_list;\r\n    address payable public owner;\r\n\r\n    constructor() payable ERC20(\"ArtistRewards\", \"AR\") {\r\n        \r\n        owner = payable(msg.sender);\r\n        // FanInfo = Fans()\r\n\r\n\r\n    }\r\n\r\n    modifier Owner() {\r\n        require(owner == msg.sender, \"You are the owner\");\r\n        _;\r\n    }\r\n\r\n    function balanceof() public view returns(uint){\r\n        return address(this).balance;\r\n    }\r\n    function balanceofOwner() public view returns(uint256){\r\n        return owner.balance;\r\n    }\r\n\r\n \r\n\r\n    function Send(address payable receiver,string memory fanname,string memory artistname,uint256  amount,  string memory message)  payable external {\r\n    \r\n    require(amount > 0);\r\n    // balances[msg.sender] -= amount;\r\n    // balances[receiver] += amount;\r\n    payable(receiver).transfer(amount);\r\n    EventsInfo = Events(_Ids,fanname,artistname,msg.sender,receiver,message,block.timestamp,msg.value);\r\n    \r\n    Eventslist.push(EventsInfo);\r\n    _Ids.increment();\r\n\r\n    emit Sent(msg.sender,receiver,amount,message,fanname,artistname);\r\n}\r\n\r\n\r\n\r\n\r\n    function createArtist(address artistaddr,string memory artistname,string memory speciality) public {\r\n\r\n        //require(artistaddr != 0 && artistname!=\"\" && speciality !=\"\");\r\n\r\n        ArtistsInfo = Artists(artist_id,artistaddr,artistname,speciality);\r\n        Artistslist.push(ArtistsInfo);\r\n        artist_id.increment();\r\n\r\n        emit Add_artist(artistaddr,artistname,speciality);\r\n\r\n        \r\n\r\n    }\r\n\r\nfunction getEvents() public view  returns( Events[] memory ){\r\n         return Eventslist;\r\n     } \r\n\r\nfunction getArtists() public view  returns( Artists[] memory ){\r\n         return Artistslist;\r\n     } \r\n\r\n}",
  "sourcePath": "C:\\Users\\91831\\Desktop\\Artist_Reward\\contracts\\ArtistReward.sol",
  "compiler": {
    "name": "solc",
    "version": "0.8.9+commit.e5eed63a.Emscripten.clang"
  },
  "schemaVersion": "3.4.3",
  "updatedAt": "2022-01-17T13:54:46.686Z",
  "networkType": "ethereum",
  "devdoc": {
    "kind": "dev",
    "methods": {
      "allowance(address,address)": {
        "details": "See {IERC20-allowance}."
      },
      "approve(address,uint256)": {
        "details": "See {IERC20-approve}. Requirements: - `spender` cannot be the zero address."
      },
      "balanceOf(address)": {
        "details": "See {IERC20-balanceOf}."
      },
      "decimals()": {
        "details": "Returns the number of decimals used to get its user representation. For example, if `decimals` equals `2`, a balance of `505` tokens should be displayed to a user as `5.05` (`505 / 10 ** 2`). Tokens usually opt for a value of 18, imitating the relationship between Ether and Wei. This is the value {ERC20} uses, unless this function is overridden; NOTE: This information is only used for _display_ purposes: it in no way affects any of the arithmetic of the contract, including {IERC20-balanceOf} and {IERC20-transfer}."
      },
      "decreaseAllowance(address,uint256)": {
        "details": "Atomically decreases the allowance granted to `spender` by the caller. This is an alternative to {approve} that can be used as a mitigation for problems described in {IERC20-approve}. Emits an {Approval} event indicating the updated allowance. Requirements: - `spender` cannot be the zero address. - `spender` must have allowance for the caller of at least `subtractedValue`."
      },
      "increaseAllowance(address,uint256)": {
        "details": "Atomically increases the allowance granted to `spender` by the caller. This is an alternative to {approve} that can be used as a mitigation for problems described in {IERC20-approve}. Emits an {Approval} event indicating the updated allowance. Requirements: - `spender` cannot be the zero address."
      },
      "name()": {
        "details": "Returns the name of the token."
      },
      "symbol()": {
        "details": "Returns the symbol of the token, usually a shorter version of the name."
      },
      "totalSupply()": {
        "details": "See {IERC20-totalSupply}."
      },
      "transfer(address,uint256)": {
        "details": "See {IERC20-transfer}. Requirements: - `recipient` cannot be the zero address. - the caller must have a balance of at least `amount`."
      },
      "transferFrom(address,address,uint256)": {
        "details": "See {IERC20-transferFrom}. Emits an {Approval} event indicating the updated allowance. This is not required by the EIP. See the note at the beginning of {ERC20}. Requirements: - `sender` and `recipient` cannot be the zero address. - `sender` must have a balance of at least `amount`. - the caller must have allowance for ``sender``'s tokens of at least `amount`."
      }
    },
    "version": 1
  },
  "userdoc": {
    "kind": "user",
    "methods": {},
    "version": 1
  }
}