{
  "contractName": "ArtistReward",
  "abi": [
    {
      "inputs": [],
      "stateMutability": "payable",
      "type": "constructor"
    },
    {
      "anonymous": false,
      "inputs": [
        {
          "indexed": true,
          "internalType": "address",
          "name": "owner",
          "type": "address"
        },
        {
          "indexed": true,
          "internalType": "address",
          "name": "spender",
          "type": "address"
        },
        {
          "indexed": false,
          "internalType": "uint256",
          "name": "value",
          "type": "uint256"
        }
      ],
      "name": "Approval",
      "type": "event"
    },
    {
      "anonymous": false,
      "inputs": [
        {
          "indexed": false,
          "internalType": "address",
          "name": "from",
          "type": "address"
        },
        {
          "indexed": false,
          "internalType": "address",
          "name": "to",
          "type": "address"
        },
        {
          "indexed": false,
          "internalType": "uint256",
          "name": "amount",
          "type": "uint256"
        },
        {
          "indexed": false,
          "internalType": "string",
          "name": "message",
          "type": "string"
        },
        {
          "indexed": false,
          "internalType": "string",
          "name": "fanname",
          "type": "string"
        },
        {
          "indexed": false,
          "internalType": "string",
          "name": "artistname",
          "type": "string"
        }
      ],
      "name": "Sent",
      "type": "event"
    },
    {
      "anonymous": false,
      "inputs": [
        {
          "indexed": true,
          "internalType": "address",
          "name": "from",
          "type": "address"
        },
        {
          "indexed": true,
          "internalType": "address",
          "name": "to",
          "type": "address"
        },
        {
          "indexed": false,
          "internalType": "uint256",
          "name": "value",
          "type": "uint256"
        }
      ],
      "name": "Transfer",
      "type": "event"
    },
    {
      "inputs": [
        {
          "internalType": "uint256",
          "name": "",
          "type": "uint256"
        }
      ],
      "name": "Eventslist",
      "outputs": [
        {
          "components": [
            {
              "internalType": "uint256",
              "name": "_value",
              "type": "uint256"
            }
          ],
          "internalType": "struct Counters.Counter",
          "name": "id",
          "type": "tuple"
        },
        {
          "internalType": "string",
          "name": "fanname",
          "type": "string"
        },
        {
          "internalType": "string",
          "name": "artistname",
          "type": "string"
        },
        {
          "internalType": "address",
          "name": "fan_addr",
          "type": "address"
        },
        {
          "internalType": "address",
          "name": "artist_Add",
          "type": "address"
        },
        {
          "internalType": "string",
          "name": "message",
          "type": "string"
        },
        {
          "internalType": "uint256",
          "name": "timestamp",
          "type": "uint256"
        },
        {
          "internalType": "uint256",
          "name": "amount",
          "type": "uint256"
        }
      ],
      "stateMutability": "view",
      "type": "function"
    },
    {
      "inputs": [
        {
          "internalType": "address",
          "name": "owner",
          "type": "address"
        },
        {
          "internalType": "address",
          "name": "spender",
          "type": "address"
        }
      ],
      "name": "allowance",
      "outputs": [
        {
          "internalType": "uint256",
          "name": "",
          "type": "uint256"
        }
      ],
      "stateMutability": "view",
      "type": "function"
    },
    {
      "inputs": [
        {
          "internalType": "address",
          "name": "spender",
          "type": "address"
        },
        {
          "internalType": "uint256",
          "name": "amount",
          "type": "uint256"
        }
      ],
      "name": "approve",
      "outputs": [
        {
          "internalType": "bool",
          "name": "",
          "type": "bool"
        }
      ],
      "stateMutability": "nonpayable",
      "type": "function"
    },
    {
      "inputs": [
        {
          "internalType": "address",
          "name": "account",
          "type": "address"
        }
      ],
      "name": "balanceOf",
      "outputs": [
        {
          "internalType": "uint256",
          "name": "",
          "type": "uint256"
        }
      ],
      "stateMutability": "view",
      "type": "function"
    },
    {
      "inputs": [
        {
          "internalType": "address",
          "name": "",
          "type": "address"
        }
      ],
      "name": "balances",
      "outputs": [
        {
          "internalType": "uint256",
          "name": "",
          "type": "uint256"
        }
      ],
      "stateMutability": "view",
      "type": "function"
    },
    {
      "inputs": [],
      "name": "decimals",
      "outputs": [
        {
          "internalType": "uint8",
          "name": "",
          "type": "uint8"
        }
      ],
      "stateMutability": "view",
      "type": "function"
    },
    {
      "inputs": [
        {
          "internalType": "address",
          "name": "spender",
          "type": "address"
        },
        {
          "internalType": "uint256",
          "name": "subtractedValue",
          "type": "uint256"
        }
      ],
      "name": "decreaseAllowance",
      "outputs": [
        {
          "internalType": "bool",
          "name": "",
          "type": "bool"
        }
      ],
      "stateMutability": "nonpayable",
      "type": "function"
    },
    {
      "inputs": [
        {
          "internalType": "address",
          "name": "spender",
          "type": "address"
        },
        {
          "internalType": "uint256",
          "name": "addedValue",
          "type": "uint256"
        }
      ],
      "name": "increaseAllowance",
      "outputs": [
        {
          "internalType": "bool",
          "name": "",
          "type": "bool"
        }
      ],
      "stateMutability": "nonpayable",
      "type": "function"
    },
    {
      "inputs": [],
      "name": "name",
      "outputs": [
        {
          "internalType": "string",
          "name": "",
          "type": "string"
        }
      ],
      "stateMutability": "view",
      "type": "function"
    },
    {
      "inputs": [],
      "name": "owner",
      "outputs": [
        {
          "internalType": "address payable",
          "name": "",
          "type": "address"
        }
      ],
      "stateMutability": "view",
      "type": "function"
    },
    {
      "inputs": [],
      "name": "symbol",
      "outputs": [
        {
          "internalType": "string",
          "name": "",
          "type": "string"
        }
      ],
      "stateMutability": "view",
      "type": "function"
    },
    {
      "inputs": [],
      "name": "totalSupply",
      "outputs": [
        {
          "internalType": "uint256",
          "name": "",
          "type": "uint256"
        }
      ],
      "stateMutability": "view",
      "type": "function"
    },
    {
      "inputs": [
        {
          "internalType": "address",
          "name": "recipient",
          "type": "address"
        },
        {
          "internalType": "uint256",
          "name": "amount",
          "type": "uint256"
        }
      ],
      "name": "transfer",
      "outputs": [
        {
          "internalType": "bool",
          "name": "",
          "type": "bool"
        }
      ],
      "stateMutability": "nonpayable",
      "type": "function"
    },
    {
      "inputs": [
        {
          "internalType": "address",
          "name": "sender",
          "type": "address"
        },
        {
          "internalType": "address",
          "name": "recipient",
          "type": "address"
        },
        {
          "internalType": "uint256",
          "name": "amount",
          "type": "uint256"
        }
      ],
      "name": "transferFrom",
      "outputs": [
        {
          "internalType": "bool",
          "name": "",
          "type": "bool"
        }
      ],
      "stateMutability": "nonpayable",
      "type": "function"
    },
    {
      "inputs": [],
      "name": "balanceof",
      "outputs": [
        {
          "internalType": "uint256",
          "name": "",
          "type": "uint256"
        }
      ],
      "stateMutability": "view",
      "type": "function"
    },
    {
      "inputs": [],
      "name": "balanceofOwner",
      "outputs": [
        {
          "internalType": "uint256",
          "name": "",
          "type": "uint256"
        }
      ],
      "stateMutability": "view",
      "type": "function"
    },
    {
      "inputs": [
        {
          "internalType": "address payable",
          "name": "receiver",
          "type": "address"
        },
        {
          "internalType": "string",
          "name": "fanname",
          "type": "string"
        },
        {
          "internalType": "string",
          "name": "artistname",
          "type": "string"
        },
        {
          "internalType": "uint256",
          "name": "amount",
          "type": "uint256"
        },
        {
          "internalType": "string",
          "name": "message",
          "type": "string"
        }
      ],
      "name": "Send",
      "outputs": [],
      "stateMutability": "payable",
      "type": "function"
    }
  ],
  "bytecode": "0x60806040526040518060400160405280600d81526020017f41727469737452657761726473000000000000000000000000000000000000008152506040518060400160405280600281526020017f4152000000000000000000000000000000000000000000000000000000000000815250816003908051906020019062000088929190620000eb565b508060049080519060200190620000a1929190620000eb565b50505033601060006101000a81548173ffffffffffffffffffffffffffffffffffffffff021916908373ffffffffffffffffffffffffffffffffffffffff16021790555062000200565b828054620000f990620001ca565b90600052602060002090601f0160209004810192826200011d576000855562000169565b82601f106200013857805160ff191683800117855562000169565b8280016001018555821562000169579182015b82811115620001685782518255916020019190600101906200014b565b5b5090506200017891906200017c565b5090565b5b80821115620001975760008160009055506001016200017d565b5090565b7f4e487b7100000000000000000000000000000000000000000000000000000000600052602260045260246000fd5b60006002820490506001821680620001e357607f821691505b60208210811415620001fa57620001f96200019b565b5b50919050565b6121c180620002106000396000f3fe6080604052600436106100fe5760003560e01c80633f925f4511610095578063a457c2d711610064578063a457c2d714610352578063a9059cbb1461038f578063c722edd7146103cc578063cfa276c814610410578063dd62ed3e1461043b576100fe565b80633f925f45146102a357806370a08231146102bf5780638da5cb5b146102fc57806395d89b4114610327576100fe565b806327e235e3116100d157806327e235e3146101d35780632980a5d314610210578063313ce5671461023b5780633950935114610266576100fe565b806306fdde0314610103578063095ea7b31461012e57806318160ddd1461016b57806323b872dd14610196575b600080fd5b34801561010f57600080fd5b50610118610478565b604051610125919061160b565b60405180910390f35b34801561013a57600080fd5b50610155600480360381019061015091906116d5565b61050a565b6040516101629190611730565b60405180910390f35b34801561017757600080fd5b50610180610528565b60405161018d919061175a565b60405180910390f35b3480156101a257600080fd5b506101bd60048036038101906101b89190611775565b610532565b6040516101ca9190611730565b60405180910390f35b3480156101df57600080fd5b506101fa60048036038101906101f591906117c8565b61062a565b604051610207919061175a565b60405180910390f35b34801561021c57600080fd5b50610225610642565b604051610232919061175a565b60405180910390f35b34801561024757600080fd5b5061025061064a565b60405161025d9190611811565b60405180910390f35b34801561027257600080fd5b5061028d600480360381019061028891906116d5565b610653565b60405161029a9190611730565b60405180910390f35b6102bd60048036038101906102b8919061199f565b6106ff565b005b3480156102cb57600080fd5b506102e660048036038101906102e191906117c8565b610ab9565b6040516102f3919061175a565b60405180910390f35b34801561030857600080fd5b50610311610b01565b60405161031e9190611a7d565b60405180910390f35b34801561033357600080fd5b5061033c610b27565b604051610349919061160b565b60405180910390f35b34801561035e57600080fd5b50610379600480360381019061037491906116d5565b610bb9565b6040516103869190611730565b60405180910390f35b34801561039b57600080fd5b506103b660048036038101906103b191906116d5565b610ca4565b6040516103c39190611730565b60405180910390f35b3480156103d857600080fd5b506103f360048036038101906103ee9190611a98565b610cc2565b604051610407989796959493929190611aff565b60405180910390f35b34801561041c57600080fd5b50610425610f06565b604051610432919061175a565b60405180910390f35b34801561044757600080fd5b50610462600480360381019061045d9190611b92565b610f47565b60405161046f919061175a565b60405180910390f35b60606003805461048790611c01565b80601f01602080910402602001604051908101604052809291908181526020018280546104b390611c01565b80156105005780601f106104d557610100808354040283529160200191610500565b820191906000526020600020905b8154815290600101906020018083116104e357829003601f168201915b5050505050905090565b600061051e610517610fce565b8484610fd6565b6001905092915050565b6000600254905090565b600061053f8484846111a1565b6000600160008673ffffffffffffffffffffffffffffffffffffffff1673ffffffffffffffffffffffffffffffffffffffff168152602001908152602001600020600061058a610fce565b73ffffffffffffffffffffffffffffffffffffffff1673ffffffffffffffffffffffffffffffffffffffff1681526020019081526020016000205490508281101561060a576040517f08c379a000000000000000000000000000000000000000000000000000000000815260040161060190611ca5565b60405180910390fd5b61061e85610616610fce565b858403610fd6565b60019150509392505050565b60066020528060005260406000206000915090505481565b600047905090565b60006012905090565b60006106f5610660610fce565b84846001600061066e610fce565b73ffffffffffffffffffffffffffffffffffffffff1673ffffffffffffffffffffffffffffffffffffffff16815260200190815260200160002060008873ffffffffffffffffffffffffffffffffffffffff1673ffffffffffffffffffffffffffffffffffffffff168152602001908152602001600020546106f09190611cf4565b610fd6565b6001905092915050565b6000821161070c57600080fd5b8473ffffffffffffffffffffffffffffffffffffffff166108fc839081150290604051600060405180830381858888f19350505050158015610752573d6000803e3d6000fd5b50604051806101000160405280600560405180602001604052908160008201548152505081526020018581526020018481526020013373ffffffffffffffffffffffffffffffffffffffff1681526020018673ffffffffffffffffffffffffffffffffffffffff1681526020018281526020014281526020013481525060076000820151816000016000820151816000015550506020820151816001019080519060200190610802929190611442565b50604082015181600201908051906020019061081f929190611442565b5060608201518160030160006101000a81548173ffffffffffffffffffffffffffffffffffffffff021916908373ffffffffffffffffffffffffffffffffffffffff16021790555060808201518160040160006101000a81548173ffffffffffffffffffffffffffffffffffffffff021916908373ffffffffffffffffffffffffffffffffffffffff16021790555060a08201518160050190805190602001906108ca929190611442565b5060c0820151816006015560e08201518160070155905050600f600790806001815401808255809150506001900390600052602060002090600802016000909190919091506000820181600001600082015481600001555050600182018160010190805461093790611c01565b6109429291906114c8565b50600282018160020190805461095790611c01565b6109629291906114c8565b506003820160009054906101000a900473ffffffffffffffffffffffffffffffffffffffff168160030160006101000a81548173ffffffffffffffffffffffffffffffffffffffff021916908373ffffffffffffffffffffffffffffffffffffffff1602179055506004820160009054906101000a900473ffffffffffffffffffffffffffffffffffffffff168160040160006101000a81548173ffffffffffffffffffffffffffffffffffffffff021916908373ffffffffffffffffffffffffffffffffffffffff1602179055506005820181600501908054610a4590611c01565b610a509291906114c8565b5060068201548160060155600782015481600701555050610a716005611422565b7f08d902c3e317b36337109a17b51168f1b87e6309642a23a9cc2cbebf8ea371d7338684848888604051610aaa96959493929190611da9565b60405180910390a15050505050565b60008060008373ffffffffffffffffffffffffffffffffffffffff1673ffffffffffffffffffffffffffffffffffffffff168152602001908152602001600020549050919050565b601060009054906101000a900473ffffffffffffffffffffffffffffffffffffffff1681565b606060048054610b3690611c01565b80601f0160208091040260200160405190810160405280929190818152602001828054610b6290611c01565b8015610baf5780601f10610b8457610100808354040283529160200191610baf565b820191906000526020600020905b815481529060010190602001808311610b9257829003601f168201915b5050505050905090565b60008060016000610bc8610fce565b73ffffffffffffffffffffffffffffffffffffffff1673ffffffffffffffffffffffffffffffffffffffff16815260200190815260200160002060008573ffffffffffffffffffffffffffffffffffffffff1673ffffffffffffffffffffffffffffffffffffffff16815260200190815260200160002054905082811015610c85576040517f08c379a0000000000000000000000000000000000000000000000000000000008152600401610c7c90611e91565b60405180910390fd5b610c99610c90610fce565b85858403610fd6565b600191505092915050565b6000610cb8610cb1610fce565b84846111a1565b6001905092915050565b600f8181548110610cd257600080fd5b90600052602060002090600802016000915090508060000160405180602001604052908160008201548152505090806001018054610d0f90611c01565b80601f0160208091040260200160405190810160405280929190818152602001828054610d3b90611c01565b8015610d885780601f10610d5d57610100808354040283529160200191610d88565b820191906000526020600020905b815481529060010190602001808311610d6b57829003601f168201915b505050505090806002018054610d9d90611c01565b80601f0160208091040260200160405190810160405280929190818152602001828054610dc990611c01565b8015610e165780601f10610deb57610100808354040283529160200191610e16565b820191906000526020600020905b815481529060010190602001808311610df957829003601f168201915b5050505050908060030160009054906101000a900473ffffffffffffffffffffffffffffffffffffffff16908060040160009054906101000a900473ffffffffffffffffffffffffffffffffffffffff1690806005018054610e7790611c01565b80601f0160208091040260200160405190810160405280929190818152602001828054610ea390611c01565b8015610ef05780601f10610ec557610100808354040283529160200191610ef0565b820191906000526020600020905b815481529060010190602001808311610ed357829003601f168201915b5050505050908060060154908060070154905088565b6000601060009054906101000a900473ffffffffffffffffffffffffffffffffffffffff1673ffffffffffffffffffffffffffffffffffffffff1631905090565b6000600160008473ffffffffffffffffffffffffffffffffffffffff1673ffffffffffffffffffffffffffffffffffffffff16815260200190815260200160002060008373ffffffffffffffffffffffffffffffffffffffff1673ffffffffffffffffffffffffffffffffffffffff16815260200190815260200160002054905092915050565b600033905090565b600073ffffffffffffffffffffffffffffffffffffffff168373ffffffffffffffffffffffffffffffffffffffff161415611046576040517f08c379a000000000000000000000000000000000000000000000000000000000815260040161103d90611f23565b60405180910390fd5b600073ffffffffffffffffffffffffffffffffffffffff168273ffffffffffffffffffffffffffffffffffffffff1614156110b6576040517f08c379a00000000000000000000000000000000000000000000000000000000081526004016110ad90611fb5565b60405180910390fd5b80600160008573ffffffffffffffffffffffffffffffffffffffff1673ffffffffffffffffffffffffffffffffffffffff16815260200190815260200160002060008473ffffffffffffffffffffffffffffffffffffffff1673ffffffffffffffffffffffffffffffffffffffff168152602001908152602001600020819055508173ffffffffffffffffffffffffffffffffffffffff168373ffffffffffffffffffffffffffffffffffffffff167f8c5be1e5ebec7d5bd14f71427d1e84f3dd0314c0f7b2291e5b200ac8c7c3b92583604051611194919061175a565b60405180910390a3505050565b600073ffffffffffffffffffffffffffffffffffffffff168373ffffffffffffffffffffffffffffffffffffffff161415611211576040517f08c379a000000000000000000000000000000000000000000000000000000000815260040161120890612047565b60405180910390fd5b600073ffffffffffffffffffffffffffffffffffffffff168273ffffffffffffffffffffffffffffffffffffffff161415611281576040517f08c379a0000000000000000000000000000000000000000000000000000000008152600401611278906120d9565b60405180910390fd5b61128c838383611438565b60008060008573ffffffffffffffffffffffffffffffffffffffff1673ffffffffffffffffffffffffffffffffffffffff16815260200190815260200160002054905081811015611312576040517f08c379a00000000000000000000000000000000000000000000000000000000081526004016113099061216b565b60405180910390fd5b8181036000808673ffffffffffffffffffffffffffffffffffffffff1673ffffffffffffffffffffffffffffffffffffffff16815260200190815260200160002081905550816000808573ffffffffffffffffffffffffffffffffffffffff1673ffffffffffffffffffffffffffffffffffffffff16815260200190815260200160002060008282546113a59190611cf4565b925050819055508273ffffffffffffffffffffffffffffffffffffffff168473ffffffffffffffffffffffffffffffffffffffff167fddf252ad1be2c89b69c2b068fc378daa952ba7f163c4a11628f55a4df523b3ef84604051611409919061175a565b60405180910390a361141c84848461143d565b50505050565b6001816000016000828254019250508190555050565b505050565b505050565b82805461144e90611c01565b90600052602060002090601f01602090048101928261147057600085556114b7565b82601f1061148957805160ff19168380011785556114b7565b828001600101855582156114b7579182015b828111156114b657825182559160200191906001019061149b565b5b5090506114c49190611555565b5090565b8280546114d490611c01565b90600052602060002090601f0160209004810192826114f65760008555611544565b82601f106115075780548555611544565b8280016001018555821561154457600052602060002091601f016020900482015b82811115611543578254825591600101919060010190611528565b5b5090506115519190611555565b5090565b5b8082111561156e576000816000905550600101611556565b5090565b600081519050919050565b600082825260208201905092915050565b60005b838110156115ac578082015181840152602081019050611591565b838111156115bb576000848401525b50505050565b6000601f19601f8301169050919050565b60006115dd82611572565b6115e7818561157d565b93506115f781856020860161158e565b611600816115c1565b840191505092915050565b6000602082019050818103600083015261162581846115d2565b905092915050565b6000604051905090565b600080fd5b600080fd5b600073ffffffffffffffffffffffffffffffffffffffff82169050919050565b600061166c82611641565b9050919050565b61167c81611661565b811461168757600080fd5b50565b60008135905061169981611673565b92915050565b6000819050919050565b6116b28161169f565b81146116bd57600080fd5b50565b6000813590506116cf816116a9565b92915050565b600080604083850312156116ec576116eb611637565b5b60006116fa8582860161168a565b925050602061170b858286016116c0565b9150509250929050565b60008115159050919050565b61172a81611715565b82525050565b60006020820190506117456000830184611721565b92915050565b6117548161169f565b82525050565b600060208201905061176f600083018461174b565b92915050565b60008060006060848603121561178e5761178d611637565b5b600061179c8682870161168a565b93505060206117ad8682870161168a565b92505060406117be868287016116c0565b9150509250925092565b6000602082840312156117de576117dd611637565b5b60006117ec8482850161168a565b91505092915050565b600060ff82169050919050565b61180b816117f5565b82525050565b60006020820190506118266000830184611802565b92915050565b600061183782611641565b9050919050565b6118478161182c565b811461185257600080fd5b50565b6000813590506118648161183e565b92915050565b600080fd5b600080fd5b7f4e487b7100000000000000000000000000000000000000000000000000000000600052604160045260246000fd5b6118ac826115c1565b810181811067ffffffffffffffff821117156118cb576118ca611874565b5b80604052505050565b60006118de61162d565b90506118ea82826118a3565b919050565b600067ffffffffffffffff82111561190a57611909611874565b5b611913826115c1565b9050602081019050919050565b82818337600083830152505050565b600061194261193d846118ef565b6118d4565b90508281526020810184848401111561195e5761195d61186f565b5b611969848285611920565b509392505050565b600082601f8301126119865761198561186a565b5b813561199684826020860161192f565b91505092915050565b600080600080600060a086880312156119bb576119ba611637565b5b60006119c988828901611855565b955050602086013567ffffffffffffffff8111156119ea576119e961163c565b5b6119f688828901611971565b945050604086013567ffffffffffffffff811115611a1757611a1661163c565b5b611a2388828901611971565b9350506060611a34888289016116c0565b925050608086013567ffffffffffffffff811115611a5557611a5461163c565b5b611a6188828901611971565b9150509295509295909350565b611a778161182c565b82525050565b6000602082019050611a926000830184611a6e565b92915050565b600060208284031215611aae57611aad611637565b5b6000611abc848285016116c0565b91505092915050565b611ace8161169f565b82525050565b602082016000820151611aea6000850182611ac5565b50505050565b611af981611661565b82525050565b600061010082019050611b15600083018b611ad4565b8181036020830152611b27818a6115d2565b90508181036040830152611b3b81896115d2565b9050611b4a6060830188611af0565b611b576080830187611af0565b81810360a0830152611b6981866115d2565b9050611b7860c083018561174b565b611b8560e083018461174b565b9998505050505050505050565b60008060408385031215611ba957611ba8611637565b5b6000611bb78582860161168a565b9250506020611bc88582860161168a565b9150509250929050565b7f4e487b7100000000000000000000000000000000000000000000000000000000600052602260045260246000fd5b60006002820490506001821680611c1957607f821691505b60208210811415611c2d57611c2c611bd2565b5b50919050565b7f45524332303a207472616e7366657220616d6f756e742065786365656473206160008201527f6c6c6f77616e6365000000000000000000000000000000000000000000000000602082015250565b6000611c8f60288361157d565b9150611c9a82611c33565b604082019050919050565b60006020820190508181036000830152611cbe81611c82565b9050919050565b7f4e487b7100000000000000000000000000000000000000000000000000000000600052601160045260246000fd5b6000611cff8261169f565b9150611d0a8361169f565b9250827fffffffffffffffffffffffffffffffffffffffffffffffffffffffffffffffff03821115611d3f57611d3e611cc5565b5b828201905092915050565b6000819050919050565b6000611d6f611d6a611d6584611641565b611d4a565b611641565b9050919050565b6000611d8182611d54565b9050919050565b6000611d9382611d76565b9050919050565b611da381611d88565b82525050565b600060c082019050611dbe6000830189611af0565b611dcb6020830188611d9a565b611dd8604083018761174b565b8181036060830152611dea81866115d2565b90508181036080830152611dfe81856115d2565b905081810360a0830152611e1281846115d2565b9050979650505050505050565b7f45524332303a2064656372656173656420616c6c6f77616e63652062656c6f7760008201527f207a65726f000000000000000000000000000000000000000000000000000000602082015250565b6000611e7b60258361157d565b9150611e8682611e1f565b604082019050919050565b60006020820190508181036000830152611eaa81611e6e565b9050919050565b7f45524332303a20617070726f76652066726f6d20746865207a65726f2061646460008201527f7265737300000000000000000000000000000000000000000000000000000000602082015250565b6000611f0d60248361157d565b9150611f1882611eb1565b604082019050919050565b60006020820190508181036000830152611f3c81611f00565b9050919050565b7f45524332303a20617070726f766520746f20746865207a65726f20616464726560008201527f7373000000000000000000000000000000000000000000000000000000000000602082015250565b6000611f9f60228361157d565b9150611faa82611f43565b604082019050919050565b60006020820190508181036000830152611fce81611f92565b9050919050565b7f45524332303a207472616e736665722066726f6d20746865207a65726f20616460008201527f6472657373000000000000000000000000000000000000000000000000000000602082015250565b600061203160258361157d565b915061203c82611fd5565b604082019050919050565b6000602082019050818103600083015261206081612024565b9050919050565b7f45524332303a207472616e7366657220746f20746865207a65726f206164647260008201527f6573730000000000000000000000000000000000000000000000000000000000602082015250565b60006120c360238361157d565b91506120ce82612067565b604082019050919050565b600060208201905081810360008301526120f2816120b6565b9050919050565b7f45524332303a207472616e7366657220616d6f756e742065786365656473206260008201527f616c616e63650000000000000000000000000000000000000000000000000000602082015250565b600061215560268361157d565b9150612160826120f9565b604082019050919050565b6000602082019050818103600083015261218481612148565b905091905056fea2646970667358221220f70c36dc0b96f52b4d6a6ef8e4bd7526d29e11f0ac7bd0d10d800e66bf503c1864736f6c63430008090033",
  "immutableReferences": {},
  "source": "// SPDX-License-Identifier: GPL-3.0\r\npragma solidity ^0.8.9;\r\nimport \"@openzeppelin/contracts/utils/Counters.sol\";\r\nimport \"@openzeppelin/contracts/token/ERC20/ERC20.sol\";\r\ncontract ArtistReward is ERC20 {\r\n     using Counters for Counters.Counter;\r\n    Counters.Counter private _Ids;\r\n\r\n    mapping(address => uint) public  balances;\r\n    //mapping(address =>  Fans) public  fans_addr;\r\n    // address payable[] public fansList;\r\n    event Sent(address from ,address to , uint amount,string message,string fanname,string artistname);\r\n    \r\n\r\n    struct Events {\r\n\r\n        Counters.Counter id;\r\n        string fanname;\r\n        //uint256 fanId;\r\n        string artistname;\r\n        //uint artistId;\r\n        address fan_addr;\r\n        address artist_Add;\r\n        string message;\r\n        uint256 timestamp;\r\n        uint256 amount;\r\n    }\r\n\r\n    Events EventsInfo; \r\n    Events[] public Eventslist;\r\n\r\n    //Fans payable[] public fans_list;\r\n    address payable public owner;\r\n\r\n    constructor() payable ERC20(\"ArtistRewards\", \"AR\") {\r\n        \r\n        owner = payable(msg.sender);\r\n        // FanInfo = Fans()\r\n\r\n\r\n    }\r\n\r\n    modifier Owner() {\r\n        require(owner == msg.sender, \"You are the owner\");\r\n        _;\r\n    }\r\n\r\n    function balanceof() public view returns(uint){\r\n        return address(this).balance;\r\n    }\r\n    function balanceofOwner() public view returns(uint256){\r\n        return owner.balance;\r\n    }\r\n\r\n \r\n\r\n    function Send(address payable receiver,string memory fanname,string memory artistname,uint256  amount,  string memory message)  payable external {\r\n    \r\n    require(amount > 0);\r\n    // balances[msg.sender] -= amount;\r\n    // balances[receiver] += amount;\r\n    payable(receiver).transfer(amount);\r\n    EventsInfo = Events(_Ids,fanname,artistname,msg.sender,receiver,message,block.timestamp,msg.value);\r\n    \r\n    Eventslist.push(EventsInfo);\r\n    _Ids.increment();\r\n\r\n    emit Sent(msg.sender,receiver,amount,message,fanname,artistname);\r\n}\r\n\r\n\r\n}",
  "sourcePath": "C:\\Users\\91831\\Desktop\\Artist_Reward\\contracts\\ArtistReward.sol",
  "compiler": {
    "name": "solc",
    "version": "0.8.9+commit.e5eed63a.Emscripten.clang"
  },
  "schemaVersion": "3.4.3",
  "updatedAt": "2022-01-16T15:40:27.914Z",
  "devdoc": {
    "kind": "dev",
    "methods": {
      "allowance(address,address)": {
        "details": "See {IERC20-allowance}."
      },
      "approve(address,uint256)": {
        "details": "See {IERC20-approve}. Requirements: - `spender` cannot be the zero address."
      },
      "balanceOf(address)": {
        "details": "See {IERC20-balanceOf}."
      },
      "decimals()": {
        "details": "Returns the number of decimals used to get its user representation. For example, if `decimals` equals `2`, a balance of `505` tokens should be displayed to a user as `5.05` (`505 / 10 ** 2`). Tokens usually opt for a value of 18, imitating the relationship between Ether and Wei. This is the value {ERC20} uses, unless this function is overridden; NOTE: This information is only used for _display_ purposes: it in no way affects any of the arithmetic of the contract, including {IERC20-balanceOf} and {IERC20-transfer}."
      },
      "decreaseAllowance(address,uint256)": {
        "details": "Atomically decreases the allowance granted to `spender` by the caller. This is an alternative to {approve} that can be used as a mitigation for problems described in {IERC20-approve}. Emits an {Approval} event indicating the updated allowance. Requirements: - `spender` cannot be the zero address. - `spender` must have allowance for the caller of at least `subtractedValue`."
      },
      "increaseAllowance(address,uint256)": {
        "details": "Atomically increases the allowance granted to `spender` by the caller. This is an alternative to {approve} that can be used as a mitigation for problems described in {IERC20-approve}. Emits an {Approval} event indicating the updated allowance. Requirements: - `spender` cannot be the zero address."
      },
      "name()": {
        "details": "Returns the name of the token."
      },
      "symbol()": {
        "details": "Returns the symbol of the token, usually a shorter version of the name."
      },
      "totalSupply()": {
        "details": "See {IERC20-totalSupply}."
      },
      "transfer(address,uint256)": {
        "details": "See {IERC20-transfer}. Requirements: - `recipient` cannot be the zero address. - the caller must have a balance of at least `amount`."
      },
      "transferFrom(address,address,uint256)": {
        "details": "See {IERC20-transferFrom}. Emits an {Approval} event indicating the updated allowance. This is not required by the EIP. See the note at the beginning of {ERC20}. Requirements: - `sender` and `recipient` cannot be the zero address. - `sender` must have a balance of at least `amount`. - the caller must have allowance for ``sender``'s tokens of at least `amount`."
      }
    },
    "version": 1
  },
  "userdoc": {
    "kind": "user",
    "methods": {},
    "version": 1
  }
}